{
  "contractName": "Transactions",
  "abi": [
    {
      "inputs": [],
      "stateMutability": "nonpayable",
      "type": "constructor"
    },
    {
      "inputs": [
        {
          "internalType": "uint256",
          "name": "",
          "type": "uint256"
        }
      ],
      "name": "transactions",
      "outputs": [
        {
          "internalType": "uint256",
          "name": "id",
          "type": "uint256"
        },
        {
          "internalType": "string",
          "name": "name",
          "type": "string"
        },
        {
          "internalType": "uint256",
          "name": "valorSuplementado",
          "type": "uint256"
        },
        {
          "internalType": "string",
          "name": "date",
          "type": "string"
        }
      ],
      "stateMutability": "view",
      "type": "function",
      "constant": true
    },
    {
      "inputs": [],
      "name": "transactionsCount",
      "outputs": [
        {
          "internalType": "uint256",
          "name": "",
          "type": "uint256"
        }
      ],
      "stateMutability": "view",
      "type": "function",
      "constant": true
    },
    {
      "inputs": [
        {
          "internalType": "uint256",
          "name": "",
          "type": "uint256"
        }
      ],
      "name": "unidades",
      "outputs": [
        {
          "internalType": "uint256",
          "name": "id",
          "type": "uint256"
        },
        {
          "internalType": "string",
          "name": "name",
          "type": "string"
        }
      ],
      "stateMutability": "view",
      "type": "function",
      "constant": true
    },
    {
      "inputs": [],
      "name": "unidadesCount",
      "outputs": [
        {
          "internalType": "uint256",
          "name": "",
          "type": "uint256"
        }
      ],
      "stateMutability": "view",
      "type": "function",
      "constant": true
    }
  ],
  "bytecode": "0x6080604052600060025560006004553480156200001b57600080fd5b50336000806101000a81548173ffffffffffffffffffffffffffffffffffffffff021916908373ffffffffffffffffffffffffffffffffffffffff160217905550620000db6040518060400160405280601e81526020017f43616d617261204d756e69636970616c2064652056696c612056656c686100008152506127106040518060400160405280600a81526020017f31302f30322f32303231000000000000000000000000000000000000000000008152506200049260201b60201c565b6200013e60405180606001604052806023815260200162000e5460239139614e206040518060400160405280600a81526020017f31352f30332f32303231000000000000000000000000000000000000000000008152506200049260201b60201c565b620001bd6040518060400160405280601281526020017f50726f63757261646f72696120476572616c0000000000000000000000000000815250610bb86040518060400160405280600a81526020017f31302f30352f32303231000000000000000000000000000000000000000000008152506200049260201b60201c565b6200022060405180606001604052806025815260200162000e2f6025913961c3506040518060400160405280600a81526020017f32392f30392f32303231000000000000000000000000000000000000000000008152506200049260201b60201c565b620002a06040518060400160405280601281526020017f5365632e204d756e2e2046696e616e63617300000000000000000000000000008152506203d0906040518060400160405280600a81526020017f30312f31322f32303231000000000000000000000000000000000000000000008152506200049260201b60201c565b620003206040518060400160405280601581526020017f5365632e204d756e2e20646520456475636163616f00000000000000000000008152506205cc606040518060400160405280600a81526020017f31332f31322f32303231000000000000000000000000000000000000000000008152506200049260201b60201c565b620003666040518060400160405280601e81526020017f43616d617261204d756e69636970616c2064652056696c612056656c68610000815250620005cf60201b60201c565b6200039060405180606001604052806023815260200162000e5460239139620005cf60201b60201c565b620003d66040518060400160405280601281526020017f50726f63757261646f72696120476572616c0000000000000000000000000000815250620005cf60201b60201c565b6200040060405180606001604052806025815260200162000e2f60259139620005cf60201b60201c565b620004466040518060400160405280601281526020017f5365632e204d756e2e2046696e616e6361730000000000000000000000000000815250620005cf60201b60201c565b6200048c6040518060400160405280601581526020017f5365632e204d756e2e20646520456475636163616f0000000000000000000000815250620005cf60201b60201c565b620008f2565b3373ffffffffffffffffffffffffffffffffffffffff1660008054906101000a900473ffffffffffffffffffffffffffffffffffffffff1673ffffffffffffffffffffffffffffffffffffffff161462000523576040517f08c379a00000000000000000000000000000000000000000000000000000000081526004016200051a90620007e6565b60405180910390fd5b60046000815480929190620005389062000841565b919050555060405180608001604052806004548152602001848152602001838152602001828152506003600060045481526020019081526020016000206000820151816000015560208201518160010190805190602001906200059d929190620006d5565b50604082015181600201556060820151816003019080519060200190620005c6929190620006d5565b50905050505050565b3373ffffffffffffffffffffffffffffffffffffffff1660008054906101000a900473ffffffffffffffffffffffffffffffffffffffff1673ffffffffffffffffffffffffffffffffffffffff161462000660576040517f08c379a00000000000000000000000000000000000000000000000000000000081526004016200065790620007e6565b60405180910390fd5b60026000815480929190620006759062000841565b91905055506040518060400160405280600254815260200182815250600160006002548152602001908152602001600020600082015181600001556020820151816001019080519060200190620006ce929190620006d5565b5090505050565b828054620006e390620008bd565b90600052602060002090601f01602090048101928262000707576000855562000753565b82601f106200072257805160ff191683800117855562000753565b8280016001018555821562000753579182015b828111156200075257825182559160200191906001019062000735565b5b50905062000762919062000766565b5090565b5b808211156200078157600081600090555060010162000767565b5090565b600082825260208201905092915050565b7f41636573736f206e656761646f00000000000000000000000000000000000000600082015250565b6000620007ce600d8362000785565b9150620007db8262000796565b602082019050919050565b600060208201905081810360008301526200080181620007bf565b9050919050565b7f4e487b7100000000000000000000000000000000000000000000000000000000600052601160045260246000fd5b6000819050919050565b60006200084e8262000837565b91507fffffffffffffffffffffffffffffffffffffffffffffffffffffffffffffffff820362000883576200088262000808565b5b600182019050919050565b7f4e487b7100000000000000000000000000000000000000000000000000000000600052602260045260246000fd5b60006002820490506001821680620008d657607f821691505b602082108103620008ec57620008eb6200088e565b5b50919050565b61052d80620009026000396000f3fe608060405234801561001057600080fd5b506004361061004c5760003560e01c806324dd5167146100515780637cf810ff1461006f5780639ace38c2146100a0578063fd99a746146100d3575b600080fd5b6100596100f1565b6040516100669190610302565b60405180910390f35b6100896004803603810190610084919061034e565b6100f7565b604051610097929190610414565b60405180910390f35b6100ba60048036038101906100b5919061034e565b6101a3565b6040516100ca9493929190610444565b60405180910390f35b6100db6102e3565b6040516100e89190610302565b60405180910390f35b60025481565b6001602052806000526040600020600091509050806000015490806001018054610120906104c6565b80601f016020809104026020016040519081016040528092919081815260200182805461014c906104c6565b80156101995780601f1061016e57610100808354040283529160200191610199565b820191906000526020600020905b81548152906001019060200180831161017c57829003601f168201915b5050505050905082565b60036020528060005260406000206000915090508060000154908060010180546101cc906104c6565b80601f01602080910402602001604051908101604052809291908181526020018280546101f8906104c6565b80156102455780601f1061021a57610100808354040283529160200191610245565b820191906000526020600020905b81548152906001019060200180831161022857829003601f168201915b505050505090806002015490806003018054610260906104c6565b80601f016020809104026020016040519081016040528092919081815260200182805461028c906104c6565b80156102d95780601f106102ae576101008083540402835291602001916102d9565b820191906000526020600020905b8154815290600101906020018083116102bc57829003601f168201915b5050505050905084565b60045481565b6000819050919050565b6102fc816102e9565b82525050565b600060208201905061031760008301846102f3565b92915050565b600080fd5b61032b816102e9565b811461033657600080fd5b50565b60008135905061034881610322565b92915050565b6000602082840312156103645761036361031d565b5b600061037284828501610339565b91505092915050565b600081519050919050565b600082825260208201905092915050565b60005b838110156103b557808201518184015260208101905061039a565b838111156103c4576000848401525b50505050565b6000601f19601f8301169050919050565b60006103e68261037b565b6103f08185610386565b9350610400818560208601610397565b610409816103ca565b840191505092915050565b600060408201905061042960008301856102f3565b818103602083015261043b81846103db565b90509392505050565b600060808201905061045960008301876102f3565b818103602083015261046b81866103db565b905061047a60408301856102f3565b818103606083015261048c81846103db565b905095945050505050565b7f4e487b7100000000000000000000000000000000000000000000000000000000600052602260045260246000fd5b600060028204905060018216806104de57607f821691505b6020821081036104f1576104f0610497565b5b5091905056fea26469706673582212204d793d04d083b08659194dd5e3d940d99ae96ebbde302b26f87746a93ebbe85664736f6c634300080d00335365632e204d756e2e20646520436f6e74726f6c652065205472616e73706172656e63696153656372657461726961204d756e69636970616c20646520436f6d756e69636163616f",
  "immutableReferences": {},
  "source": "// SPDX-License-Identifier: MIT\r\npragma solidity >=0.4.22;\r\n\r\ncontract Transactions {\r\n\r\n    // Registra o login de ADM\r\n    address private owner;\r\n\r\n     // Modelo de uma unidade gestora - id e nome\r\n\r\n     struct Unidade {\r\n        uint id;\r\n        string name;\r\n    }\r\n\r\n    mapping(uint => Unidade) public unidades;   // Mapeia as unidades gestoras criando um array:\r\n    uint public unidadesCount = 0; // Cria um contador para as unidades gestoras existentes:\r\n\r\n    // Modelo de uma transao- id, orgo que recebeu e valorSuplementado\r\n\r\n    struct Transaction {\r\n        uint id;\r\n        string name;\r\n        uint valorSuplementado;\r\n        string date;\r\n    }\r\n    mapping(uint => Transaction) public transactions;     // Mapeia as transaes\r\n    uint public transactionsCount = 0; // Cria um contador para as transaes j realizadas\r\n    \r\n    // Funo que adiciona uma unidade gestora:\r\n\r\n    function addUnidade (string memory _name) private {\r\n        \r\n        require(owner == msg.sender,\"Acesso negado\");\r\n        unidadesCount ++;\r\n        unidades[unidadesCount] = Unidade(unidadesCount, _name); \r\n    }\r\n\r\n    // Funo que adiciona uma transao:\r\n\r\n    function addTransaction (string memory _name, uint _valorSuplementado, string memory _date) private {\r\n        require(owner == msg.sender,\"Acesso negado\");\r\n        transactionsCount ++;\r\n        transactions[transactionsCount] = Transaction(transactionsCount, _name, _valorSuplementado, _date);\r\n    }\r\n\r\n    //Para teste, popula o contrato com duas transaes\r\n\r\n   constructor () public {\r\n\r\n        owner = msg.sender;\r\n        addTransaction(\"Camara Municipal de Vila Velha\", 10000, \"10/02/2021\"); // ambos os valores passados estaro no input - aqui estamos populando manualmente\r\n        addTransaction(\"Secretaria Municipal de Comunicacao\", 20000, \"15/03/2021\");\r\n        addTransaction(\"Procuradoria Geral\", 3000, \"10/05/2021\");\r\n        addTransaction(\"Sec. Mun. de Controle e Transparencia\", 50000, \"29/09/2021\");\r\n        addTransaction(\"Sec. Mun. Financas\", 250000, \"01/12/2021\");\r\n        addTransaction(\"Sec. Mun. de Educacao\", 380000, \"13/12/2021\");\r\n        addUnidade(\"Camara Municipal de Vila Velha\");\r\n        addUnidade(\"Secretaria Municipal de Comunicacao\");\r\n        addUnidade(\"Procuradoria Geral\");\r\n        addUnidade(\"Sec. Mun. de Controle e Transparencia\");\r\n        addUnidade(\"Sec. Mun. Financas\");\r\n        addUnidade(\"Sec. Mun. de Educacao\");\r\n    }\r\n}\r\n\r\n",
  "sourcePath": "C:\\Users\\Gabriel\\Desktop\\react v1\\dapp\\contracts\\Transactions.sol",
  "compiler": {
    "name": "solc",
    "version": "0.8.13+commit.abaa5c0e.Emscripten.clang"
  },
  "schemaVersion": "3.4.7",
  "updatedAt": "2022-04-21T23:51:35.327Z",
  "networkType": "ethereum",
  "devdoc": {
    "kind": "dev",
    "methods": {},
    "version": 1
  },
  "userdoc": {
    "kind": "user",
    "methods": {},
    "version": 1
  }
}